:100000000C949A020C94B9020C94B9020C94B902A3
:100010000C94B9020C94B9020C94B9020C94B90274
:100020000C94B9020C94B9020C9473040C94AE04B1
:100030000C94B9020C94B9020C94B9020C94010FFF
:100040000C94B9020C94FB0F0C94B9020C94B902F5
:100050000C94B9020C94B9020C94B9020C94B90234
:100060000C94B9020C94B9020C94B9020C94B90224
:100070000C94B9020C94B9020C94B9020C94B90214
:100080000C94B9020C94B9020C94B9020C94B90204
:100090000C94B9020C94B902490446044304400488
:1000A0003D043A043704340431042E042B0428049C
:1000B000250422041F041C0419041604130410044C
:1000C0000D040A04070404040104FE03FB03F803FF
:1000D000F503F203EF03EC03E903E603E303E003B4
:1000E000DD03DA03D703D403D103CE03CB03C80364
:1000F000C503C203BF03BC03B903B603B303B00314
:10010000AD03AA03A703A403A1039E039B039803C3
:10011000950392038F038C038903084AD73B3BCE98
:10012000016E84BCBFFDC12F3D6C74319ABD5683F6
:100130003DDA3D00C77F11BED9E4BB4C3E916BAAAE
:10014000AABE000000803F05A84CCDB2D44EB938FD
:1001500036A9020C50B9918688083CA6AAAA2ABEE4
:10016000000000803F000100009901120002000021
:10017000AB014300030000EE010401030904F20196
:1001800014020309040802160303090420020C00E8
:1001900001C1120180360181361201000202000005
:1001A00010EB036720000101020301090243000272
:1001B0000100C03209040000010202010005240010
:1001C0001001052401010104240206052406000192
:1001D0000705820310004009040100020A00000024
:1001E00007050302400000070584024000000403E5
:1001F0000904140359006F007500720020004E00BE
:1002000061006D00650000001603550053004200B8
:100210002000530065007200690061006C0000005E
:100220000C033100320033003400350000000D0AA9
:1002300000466C6F6174696E6720706F696E742020
:100240006572726F720D0A00556E737570706F7201
:100250007465642073746174656D656E740D0A0055
:10026000457870656374656420636F6D6D616E645D
:10027000206C65747465720D0A00426164206E75AD
:100280006D62657220666F726D61740D0A00657231
:10029000726F723A20006F6B0D0A000D0A000D0A92
:1002A0004772626C20302E37642D6C696E636F6DFF
:1002B00061746963005761726E696E673A204661C6
:1002C000696C656420746F207265616420454550D7
:1002D000524F4D2073657474696E67732E20557389
:1002E000696E672064656661756C74732E0D0A0013
:1002F00027242720746F2064756D702063757272D7
:10030000656E742073657474696E67730D0A0053AB
:10031000746F726564206E65772073657474696E9E
:10032000670D0A00556E6B6E6F776E20706172619B
:100330006D657465720D0A00537465702070756C7C
:100340007365206D757374206265203E3D203320F7
:100350006D6963726F7365636F6E64730D0A00532A
:10036000746570732F6D6D206D75737420626520D8
:100370003E20302E300D0A000D0A2724783D76618C
:100380006C75652720746F207365742070617261CD
:100390006D65746572206F72206A757374202724EE
:1003A0002720746F2064756D702063757272656E9E
:1003B000742073657474696E67730D0A0020286376
:1003C0006F726E6572696E67206A756E6374696FAD
:1003D0006E20646576696174696F6E20696E206D48
:1003E0006D29002028616363656C65726174696FB3
:1003F0006E20696E206D6D2F7365635E32290D0A64
:100400002439203D2000290D0A2438203D200020D9
:10041000287374657020706F727420696E766572CF
:1004200074206D61736B2E2062696E617279203D5C
:10043000200020286D6D2F617263207365676D65E4
:100440006E74290D0A2437203D200020286D6D2F61
:100450006D696E2064656661756C74207365656B8B
:100460002072617465290D0A2436203D2000202861
:100470006D6D2F6D696E2064656661756C742066A4
:100480006565642072617465290D0A2435203D205C
:100490000020286D6963726F7365636F6E647320EB
:1004A000737465702070756C7365290D0A2434208F
:1004B0003D2000202873746570732F6D6D207A299C
:1004C0000D0A2433203D2000202873746570732F9B
:1004D0006D6D2079290D0A2432203D2000202873DB
:1004E000746570732F6D6D2078290D0A2431203DBD
:1004F00020002430203D2000494E46494E495459A1
:100500004E414ECDCCCC3D0AD7233C17B7D13877DE
:10051000CC2B329595E6241FB14F0A0000204100F4
:1005200000C84200401C4620BCBE4CCA1B0E5AAE3E
:10053000C59D740011241FBECFEFD0E2DEBFCDBF3A
:1005400011E0A0E0B1E0E8E8FCE400E00BBF02C08D
:1005500007900D92A431B107D9F715E0A4E1B1E0FD
:1005600001C01D92AD3FB107E1F70E941D060C943A
:1005700042260C94000081E88093D70080EA8093A3
:10058000D80086E189BD09B400FEFDCF80E98093E3
:10059000D8001092E00010921401109215018CE026
:1005A0008093E200789408952FB7F8948091140115
:1005B000882369F083E08093E9009BE68091E8005E
:1005C00085FD09C082FF03C09093E800F7CF2FBFDD
:1005D0002FEF3FEF0CC09091F1008091E80085FD76
:1005E00003C08BE68093E8002FBF292F30E0C901BC
:1005F0000895482F809114018823D9F12FB7F894DA
:1006000084E08093E90080911701882341F0809174
:10061000E80085FD02C02FBF12C010921701909113
:10062000E400975E34E08091E80085FD13C02FBFA1
:100630008091E400891729F481E0809317018FEFFE
:100640000895809114018823A1F02FB7F894309376
:10065000E900E9CF4093F1008091E80085FD03C0F7
:100660008AE38093E80085E0809316012FBF80E045
:1006700008958FEF0895CF93DF93EC0180911401DB
:10068000882309F41CC13FB7F89484E08093E90003
:1006900080911701882309F408C18091E80085FD45
:1006A00002C03FBF0CC110921701FFC09091E4003F
:1006B000975E8091E80085FD13C03FBF8091E40004
:1006C000891721F481E080931701F9C0809114010A
:1006D000882309F4F4C03FB7F894B093E900E9CF58
:1006E0008091F200242F281B822F90E06817790751
:1006F00008F4262F822F90E08134910508F0C6C0BF
:10070000845B9F4FFC01EE0FFF1F0590F491E02DDD
:10071000099489918093F10089918093F1008991E6
:100720008093F10089918093F10089918093F10089
:1007300089918093F10089918093F1008991809350
:10074000F10089918093F10089918093F100899162
:100750008093F10089918093F10089918093F10059
:1007600089918093F10089918093F1008991809320
:10077000F10089918093F10089918093F100899132
:100780008093F10089918093F10089918093F10029
:1007900089918093F10089918093F10089918093F0
:1007A000F10089918093F10089918093F100899102
:1007B0008093F10089918093F10089918093F100F9
:1007C00089918093F10089918093F10089918093C0
:1007D000F10089918093F10089918093F1008991D2
:1007E0008093F10089918093F10089918093F100C9
:1007F00089918093F10089918093F1008991809390
:10080000F10089918093F10089918093F1008991A1
:100810008093F10089918093F10089918093F10098
:1008200089918093F10089918093F100899180935F
:10083000F10089918093F10089918093F100899171
:100840008093F10089918093F10089918093F10068
:1008500089918093F10089918093F100899180932F
:10086000F10089918093F10089918093F100899141
:100870008093F10089918093F10089918093F10038
:1008800089918093F10089918093F10089918093FF
:10089000F1008091E80085FD02C05093E800621BE2
:1008A0007109A09316013FBF04C0B4E040E45AE3CD
:1008B000A5E06115710509F0F9CE80E001C08FEF68
:1008C000DF91CF9108959FB7F89480911601882306
:1008D00041F084E08093E9008AE38093E80010927D
:1008E00016019FBF08951F920F920FB60F92112409
:1008F0008F939F938091E1001092E100982F83FFE6
:1009000011C01092E90081E08093EB001092EC009E
:1009100082E18093ED0088E08093F0001092140152
:100920001092150192FF13C080911401882379F071
:1009300080911601882359F08150809316018823F5
:1009400031F484E08093E9008AE38093E8009F918A
:100950008F910F900FBE0F901F9018951F920F92BE
:100960000FB60F920BB60F9211240F931F932F9374
:100970003F934F935F936F937F938F939F93AF9327
:10098000BF93EF93FF931092E9008091E80083FFFB
:100990003CC14091F1003091F1008091F100682F4D
:1009A00070E02091F100922F80E0682B792B8091EC
:1009B000F100A82FB0E02091F100922F80E0A82B49
:1009C000B92B1091F1000091F10082EF8093E800C3
:1009D000363009F05AC02CE631E0A90145505040AC
:1009E000F9013797859194918617970701F5FA01D8
:1009F000859194918A179B07D1F49A012E5F3F4FFE
:100A0000F901659174912E5F3F4FF9014491212FB7
:100A100030E0902F80E0282B392B2F3F310519F043
:100A200010F02FEF30E0241758F4422F09C0295F4F
:100A30003F4F495F5F4FF1E026393F0789F6E5C038
:100A40005EEF8091E800282F30E0C901857090703A
:100A5000892BB9F322FDDCC0342F413108F030E19D
:100A6000232FCB0106C0FC010196E491E093F10035
:100A700021502223C1F7630F711D431B5093E800DF
:100A80004423F9F63031E9F2C3C0353061F48EEF1A
:100A90008093E8008091E80080FFFCCF862F80687B
:100AA0008093E300B5C0393051F5442309F0ADC05F
:100AB0006093140110921501109216018EEF80932D
:100AC000E8008FE891E021E02093E900FC01019625
:100AD000E491E093EB00EE2369F0AC014F5F5F4FD0
:100AE000FC0184918093EC00CA010196FA013491D3
:100AF0003093ED002F5F253039F78EE181C038301B
:100B000061F4403809F081C08091E80080FFFCCF9B
:100B1000809114018093F10050C0313289F4413A40
:100B200009F073C08091E80080FFFCCFE0E0F1E0C5
:100B300081918093F10081E0E730F807C9F73DC06B
:100B40003032A1F4413209F060C08091E80082FFA8
:100B5000FCCFE0E0F1E08091F100819381E0E730AB
:100B6000F807C9F78BEF8093E80027C0323251F4C1
:100B7000413209F04AC0609315018091E80080FF7E
:100B8000FCCF1BC03323E9F48091E80080FFFCCF49
:100B9000423811F080E00DC0A093E9008091EB0095
:100BA00090E025E0969587952A95E1F7817010925F
:100BB000E9008093F1001092F1008EEF8093E8003D
:100BC00027C0313011F0333001F54230F1F4672B9A
:100BD000E1F42A2F2F77822F81508430B0F48EEFEA
:100BE0008093E8002093E900333079F089E1809325
:100BF000EB0081E090E002C0880F991F2A95E2F790
:100C00008093EA001092EA0003C081E28093EB0037
:100C1000FF91EF91BF91AF919F918F917F916F91D4
:100C20005F914F913F912F911F910F910F900BBEAC
:100C30000F900FBE0F901F901895789460E072ECA3
:100C400081E090E00E94530E0E94560E0E9487158C
:100C50000E94CA160E94830F0E94420E0E949709AA
:100C60000E94FB1D0E94A60EFDCF0E94D90F089581
:100C70002F923F924F925F926F927F928F929F92AC
:100C8000AF92BF92CF92DF92EF92FF920F931F939A
:100C9000DF93CF93CDB7DEB7CE54D0400FB6F894E4
:100CA000DEBF0FBECDBF3C017EAF6DAF21965FAF03
:100CB0004EAF219722962FAF229723960FAF2397FF
:100CC0002496EFAE24972896ACAEBDAECEAEDFAE86
:100CD000289729968FAE2997E22EFF24EE0CFF1C51
:100CE000EE0CFF1C4E0D5F1D5CAF4BAFDA012D907B
:100CF0003D904D905C90FC01EE0DFF1DC201B101D5
:100D000020813181428153810E94D11F69AB7AAB2E
:100D10008BAB9CAB10E0000F111F000F111F219631
:100D2000EEADFFAD2197E00FF11FFAAFE9AFA08064
:100D3000B180C280D380F301E00FF11FC601B5017D
:100D400020813181428153810E94D11F6DA77EA7EE
:100D50008FA798AB24962FAD2497E22FF0E0EE0FEB
:100D6000FF1FEE0FFF1F6E0E7F1ED3018D919D9111
:100D70000D90BC91A02D8DAB9EABAFABB8AF2DADA0
:100D80003EADE20FF31F60817181828193812DA9B5
:100D90003EA94FA958AD0E94D01F69A77AA78BA77B
:100DA0009CA7D201C101B0588DA39EA3AFA3B8A741
:100DB000A6019501505829A33AA34BA35CA34DADBE
:100DC0005EADE40EF51ED7016D917D918D919C91E4
:100DD00029A93AA94BA95CA90E94D01F3B014C014B
:100DE000EDADFEAD0E0F1F1FD8016D917D918D9160
:100DF0009C912DA53EA54FA558A90E94D01F5B012F
:100E00006C016DA17EA18FA198A5A60195010E94FC
:100E10007F237B018C0169A17AA18BA19CA1A401F4
:100E200093010E947F239B01AC01C801B7010E947E
:100E3000D01F1B012C016DA17EA18FA198A5A4013B
:100E400093010E947F237B018C0169A17AA18BA170
:100E50009CA1A60195010E947F239B01AC01C801C2
:100E6000B7010E94D11F9B01AC01C201B1010E94D8
:100E700044205B016C0120E030E040E050E00E9443
:100E8000AA20882354F4C601B5012BED3FE049ECBC
:100E900050E40E94D11F5B016C01A8968FADA8970A
:100EA000882351F0C601B5012BED3FE049EC50E439
:100EB0000E94D01F5B016C01C601B501A7962CAD45
:100EC0003DAD4EAD5FADA7970E947F2329A53AA502
:100ED0004BA55CA50E94BA227B018C0120E030E08A
:100EE00040E050E00E94AA20882309F4CAC1C8014A
:100EF000B7012091EF053091F0054091F105509137
:100F0000F2050E94B1200E9487210E941E2178A331
:100F10006F8F2996BFAD2997BB23A1F080E090E0A9
:100F20000E944A219B01AC0128966CAD7DAD8EAD2F
:100F30009FAD28970E947F2328966CAF7DAF8EAF20
:100F40009FAF28972F8D38A1B90180E090E00E94D3
:100F50004A217B018C01C601B501A80197010E94BD
:100F6000B1206B8F7C8F8D8F9E8F69A57AA58BA505
:100F70009CA5A80197010E94B1206F8B788F898F63
:100F80009A8F6B8D7C8D8D8D9E8D20E030E040E0C2
:100F90005FEB0E947F232B8D3C8D4D8D5E8D0E94DB
:100FA0007F2320E030E040E85FE30E94D11F6B8B9D
:100FB0007C8B8D8B9E8B24963FAD2497E32FF0E0A6
:100FC000EE0FFF1FEE0FFF1FCE010196E80FF91F76
:100FD0002DA93EA94FA958AD208331834283538365
:100FE00041E050E05E874D8766242296BFAD229790
:100FF000AB2FB0E0AA0FBB1FAA0FBB1FA80FB91FD2
:101000002B96BFAFAEAF2B9723963FAD2397232FE1
:1010100030E0220F331F220F331F280F391F2D9668
:101020003FAF2EAF2D972F96FFAFEEAF2F9703C197
:1010300048E146150CF446C06DA17EA18FA198A58C
:101040002B8D3C8D4D8D5E8D0E947F237B018C010D
:1010500069A17AA18BA19CA12B893C894D895E89CC
:101060000E947F239B01AC01C801B7010E94D11FE0
:101070007B018C016DA17EA18FA198A52B893C8954
:101080004D895E890E947F235B016C0169A17AA171
:101090008BA19CA12B8D3C8D4D8D5E8D0E947F235D
:1010A0009B01AC01C601B5010E94D01F6DA37EA3B8
:1010B0008FA398A76394C701D80189A39AA3ABA370
:1010C000BCA361C0AD85BE85BD0180E090E00E94FB
:1010D0004A212B8D3C8D4D8D5E8D0E947F237B019F
:1010E0008C01C8010E94AE206F87788B898B9A8B08
:1010F000B701C8010E9402243B014C01EBADFCADDD
:10110000E080F1800281138117FB109517F910958B
:10111000A9ADBAAD2D903D904D905C90C801B7013E
:101120002F85388949895A890E947F235B016C0188
:10113000C201B101A40193010E947F239B01AC0174
:10114000C601B5010E94D11F6DA37EA38FA398A7EE
:10115000C801B701A40193010E947F237B018C0188
:10116000C201B1012F85388949895A890E947F239C
:101170009B01AC01C801B7010E94D01F69A37AA3EB
:101180008BA39CA3662469A97AA98BA99CA92DA1EC
:101190003EA14FA158A50E94D11F2B96EEADFFADE9
:1011A0002B9760837183828393836DA57EA58FA522
:1011B00098A929A13AA14BA15CA10E94D11F2D960B
:1011C000AEADBFAD2D976D937D938D939C9313978B
:1011D0002F96EEADFFAD2F97608171818281938153
:1011E0002F89388D498D5A8D0E94D11F2F96AEAD13
:1011F000BFAD2F976D937D938D939C9313976981CA
:101200007A818B819C812D813E814F815885E98433
:10121000FA840B851C852896ACACBDACCEACDFAC9B
:10122000289729968FAC29970E94CA18ED85FE85CC
:101230003196FE87ED872D853E854F8D58A1241769
:10124000350708F4F5CEADADBEAD6D917D918D91B4
:101250009C91139714962D913D914D915C91179708
:101260001896ED90FD900D911C911B972896ACACB3
:10127000BDACCEACDFAC289729968FAC29970E94E5
:10128000CA18C25BDF4F0FB6F894DEBF0FBECDBFEA
:10129000CF91DF911F910F91FF90EF90DF90CF9052
:1012A000BF90AF909F908F907F906F905F904F9086
:1012B0003F902F900895EF92FF920F931F93CF933B
:1012C000DF937B018C010E9487210E941E21EB018C
:1012D0000E94EE0FBE0180E090E00E944A219B0137
:1012E000AC01C801B7010E94D01F20E030E04AE7FE
:1012F00054E40E947F230E9487210E941E21DC016A
:10130000CB010E94AD1D20E931E008C080E197E2E9
:10131000F9013197F1F70197D9F721972097B1F7A4
:10132000DF91CF911F910F91FF90EF90089581E28F
:10133000E8E1F1E0DF011D928A95E9F78091E60589
:101340009091E705A091E805B091E90580931F0110
:1013500090932001A0932101B09322018091EA058E
:101360009091EB05A091EC05B091ED0580932301E0
:1013700090932401A0932501B09326011092360189
:1013800091E09093370182E08093380190931C01A3
:1013900008950F931F93CF93DF93EC018B01D90135
:1013A0008C91FA01E80FF11DE081EE23B1F0E883A2
:1013B000E154EA3110F082E00EC08C918F5F8C9383
:1013C000CA01B901A8010E94C01D892B19F021E0B2
:1013D00030E005C081E08093180120E030E0C901D1
:1013E000DF91CF911F910F9108952F923F924F92CD
:1013F0005F926F927F928F929F92AF92BF92CF92A5
:10140000DF92EF92FF920F931F93DF93CF93CDB7AD
:10141000DEB7AB970FB6F894DEBF0FBECDBF9FA36C
:101420008EA31982109218011CA21BA272E0472EF3
:10143000512C4C0E5D1E63E0862E912C8C0E9D1E51
:101440003E010894611C711CDD24D39453E0B52E39
:1014500042E0C42EAA24AA9434E0332EEFC06B815C
:101460007C818D819E810E944D247B018C010E9494
:1014700019214A814D3409F4ACC0443509F4D4C073
:10148000473409F0D7C06531710509F48AC0663167
:1014900071058CF56430710509F45CC06530710527
:1014A000ACF46130710509F45BC0623071052CF455
:1014B0006115710509F451C0B4C06230710509F4B9
:1014C00052C06330710509F0ACC050C06231710583
:1014D00009F456C0633171052CF46131710509F0CE
:1014E000A0C047C06331710509F451C06431710572
:1014F00009F097C053C06A35710509F45BC06B35BC
:101500007105A4F46E31710511F16F3171052CF480
:101510006C31710509F085C01AC06533710509F495
:1015200043C06035710509F07CC041C06C35710560
:1015300009F446C06C3571050CF43FC06D3571057A
:1015400009F441C06E35710509F06BC03FC042E03F
:101550004BA370C051E05BA36DC0109219016AC02B
:10156000D092190167C0C092190164C0B0921901EC
:1015700061C010923601D0923701C09238015AC032
:1015800010923601C0923701D092380153C0D092E8
:101590003601C0923701109238014CC0D0921B0125
:1015A00049C010921B0146C061E06CA343C0309259
:1015B000190140C0D0921C013DC010921C013AC0DC
:1015C00073E07BA337C0D0921A0134C010921A0185
:1015D00031C063307105E1F06430710534F477FD9A
:1015E00020C06230710574F010C065307105B1F033
:1015F0006530710584F06E31710539F06C33710519
:1016000081F403C0D0921D0115C0C0921D0112C00B
:10161000D0921E010FC0A0921E010CC010921E019C
:1016200009C0B092180106C0C801B7010E941E216E
:101630006093330180911801882351F4C201B401F1
:101640004EA15FA193010E94C909892B09F007CF20
:1016500080911801882309F0DEC21982FE013796B5
:101660008CE0DF01482F1D924A95E9F79E012D5E1F
:101670003F4FD9011D928A95E9F7A7E2B1E08CE0CE
:101680000D9001928150E1F718A619A6B0E8BAA70B
:10169000EFEBEBA71DA2222433244424552440E081
:1016A00050E060E070E04F8F58A369A37AA33E0139
:1016B0000894611C711CB8C0CB80DC80ED80FE807A
:1016C00080911B01882319F4460157010AC0C70104
:1016D000B60123E333E34BEC51E40E947F234B013B
:1016E0005C010A81003509F460C001355CF4063400
:1016F000F9F006340CF498C0802F8954833008F038
:1017000093C042C0033509F453C0043524F40235B4
:1017100009F08AC006C0802F8855833008F084C045
:1017200050C08F8E98A2A9A2BAA251E05DA37CC03E
:10173000C501B40120E030E040E050E00E94AA2062
:1017400018161CF061E06093180180911A0188233B
:1017500029F088A699A6AAA6BBA666C08091190101
:10176000882349F48092230190922401A0922501BC
:10177000B092260159C080921F0190922001A09240
:101780002101B092220150C0E02FFF27E7FDF09524
:10179000E954F040EE0FFF1FEE0FFF1FE60DF71D9F
:1017A000828A938AA48AB58A3FC0160127013CC069
:1017B000C701B6010E94192170933501609334016D
:1017C00033C080911C01882319F47CA1772389F010
:1017D000E02FFF27E7FDF095E855F040EE0FFF1FE3
:1017E000EE0FFF1FE60DF71D86829782A086B18659
:1017F0001BC0112707FD109508551040000F111F41
:10180000000F111F060D171DD80116966D917D91C1
:101810008D919C911997A50194010E94D11FF80107
:101820006683778380879187CE010296BE016D5FC4
:101830007F4F4EA15FA193010E94C909892B09F036
:101840003BCF80911801882309F0E5C180911E01EA
:101850004091340150913501662757FD6095762FF0
:10186000992787FD90950E94240EFBA1F13091F0FD
:10187000F13020F1F23021F0F33009F0C1C10FC096
:101880000E9435068CE0FE013796DF011D928A9595
:10189000E9F7B6C1B101C2010E945B09B1C16F8114
:1018A000788589859A852B853C854D855E85EF8475
:1018B000F88809891A890E945616A2C1B0901901A8
:1018C000B1E0BB16E9F0BB1628F0E3E0EB1508F435
:1018D00097C13BC06F81788589859A852B853C852A
:1018E0004D855E85EF84F88809891A89A0902301C7
:1018F000B0902401C0902501D0902601882422C0F8
:101900006F81788589859A852B853C854D855E8597
:10191000EF84F88809891A8980901A01882061F477
:10192000F0911F01F8A7A0912001A9A7B091210172
:10193000BAA7E0912201EBA7E8A5F9A5AAA5BBA546
:101940005F016D010E94CA185BC1FDA1FF2309F46C
:10195000EEC0E0913601F0E0EE0FFF1FEE0FFF1F2B
:10196000D301AE0FBF1FE85EFE4F16966D917D91BD
:101970008D919C91199727853089418952890E94C0
:10198000D01F1B012C01E0913701F0E0EE0FFF1F8B
:10199000EE0FFF1F6E0E7F1EE85EFE4FD301169600
:1019A0006D917D918D919C91199727853089418901
:1019B00052890E94D01F3B014C018CE0FE017396BE
:1019C000DF011D928A95E9F76F8D78A189A19AA10F
:1019D00020E030E040E850E40E947F232F8D38A1C2
:1019E00049A15AA10E947F237B018C01C201B10150
:1019F000A20191010E947F239B01AC01C801B701A4
:101A00000E94D01F7B018C01C401B301A40193018A
:101A10000E947F239B01AC01C801B7010E94D01F27
:101A20000E940C247B018C01C201B101A40193012D
:101A30000E94BA229B01AC0117FB109517F9109573
:101A4000C801B7010E94B1206B017C01A70196017A
:101A50000E945424882321F084E080931801DBC085
:101A6000B3E0BB1621F4F7FAF094F7F8F0946F8D19
:101A700078A189A19AA120E030E040E050E00E94E6
:101A8000AA2088236CF4F7FAF094F7F8F0944F8DBD
:101A900058A169A17AA170584F8F58A369A37AA35E
:101AA00000913601A02EBB24AA0CBB1CAA0CBB1CA7
:101AB0008E010F5F1F4FA00EB11EC401B301A7011D
:101AC00096010E947F239B01AC01C201B1010E94DB
:101AD000D01F20E030E040E05FE30E947F23D5018B
:101AE00052966D937D938D939C935597809137017A
:101AF00090E0880F991F880F991F080F191FC201C6
:101B0000B101A70196010E947F239B01AC01C40192
:101B1000B3010E94D11F20E030E040E05FE30E946B
:101B20007F23F801628B738B848B958B23C0E091AC
:101B30003601F0E0EE0FFF1FEE0FFF1FE60DF71D61
:101B400062897389848995892091370130E0220F59
:101B5000331F220F331F620E731ED30152962D9135
:101B60003D914D915C9155970E94BA226F8F78A359
:101B700089A39AA390911901209136010091370110
:101B8000E090380180901A01882061F4B0911F0123
:101B9000B8A7E0912001E9A7F0912101FAA74091AF
:101BA00022014BA700D000D00F92EDB7FEB73196BF
:101BB0004F8D58A169A17AA1ADB7BEB711964D93CB
:101BC0005D936D937C93149780E0923009F481E0EB
:101BD000848387E291E0BE01695F7F4FAE014D5E75
:101BE0005F4F38A5E9A5FAA5ABA5A32EBE2ECF2E33
:101BF000DA2E0E9438060F900F900F900F900F90E2
:101C0000A7E2B1E0FE0137968CE001900D92815081
:101C1000E1F780911801AB960FB6F894DEBF0FBEC6
:101C2000CDBFCF91DF911F910F91FF90EF90DF908B
:101C3000CF90BF90AF909F908F907F906F905F906C
:101C40004F903F902F900895CF93DF93EC018091B8
:101C5000390190913A01C817D90789F00E94EE0F17
:101C6000209741F01C161D0614F42D9801C02D9AE2
:101C70002C9A01C02C98D0933A01C0933901DF917E
:101C8000CF910895249A259A80E090E040E050E0BA
:101C900060E070E00E94240E08950E94D40208952E
:101CA0000E94F90208950E94BB02089510926D01EE
:101CB00010926E018EE992E00E94C21F8BE992E0C1
:101CC0000E94C21F0895CF93DF93EC01009719F48F
:101CD00086E992E02AC08EE892E00E94C21FC230DC
:101CE000D10589F0C330D10524F4C130D105A1F468
:101CF00007C0C330D10551F0C430D10569F409C023
:101D00008AE792E012C080E692E00FC088E492E099
:101D10000CC081E392E009C0BE01882777FD809561
:101D2000982F0E94A21F8EE292E00E94C21FDF91B4
:101D3000CF910895FC018081843221F4CF010E946B
:101D40009B150895CF010E94F50908951F9311E096
:101D50003DC02D30A9F4E0916D01EE2351F0F0E08B
:101D6000E55CFE4F10828BE391E00E949A0E90E0BA
:101D700002C080E090E00E94630E10926D0106C0E8
:101D800080916E01882329F0293201F510926E01AD
:101D90001DC02132DCF02F32C9F0283219F4109323
:101DA0006E0114C090916D01913380F4822F8156A1
:101DB000E92FF0E09F5F8A3120F4E55CFE4F20526E
:101DC00002C0E55CFE4F208390936D010E944D0E92
:101DD000282F8A3009F4BFCFBCCF10929301809195
:101DE0006F008D7F80936F008AEF90E020E931E0F3
:101DF000F9013197F1F70197D9F7779A769A479ACF
:101E000008951F920F920FB60F9211248F939F93F4
:101E100092B18091EE0585719A7E892B82B91092DC
:101E2000B1009F918F910F900FBE0F901F9018954A
:101E30009B01AC01203283E0380780E0480780E056
:101E4000580720F420E233E040E050E060E070E723
:101E500088E399E30E948F24C901DA01803020E0F1
:101E6000920721E0A20720E0B20738F4FC019C01B0
:101E700040E050E060E070E031C0803020E0920748
:101E800028E0A20720E0B207A8F473E0B695A79572
:101E9000979587957A95D1F7FC019C0140E050E039
:101EA00063E0220F331F441F551F6A95D1F761E08D
:101EB00070E014C026E0B695A795979587952A956A
:101EC000D1F7FC019C0140E050E086E0220F331F77
:101ED000441F551F8A95D1F762E070E08091810020
:101EE000962F9F5F887F982B90938100F0938900B5
:101EF000E09388002093830130938401409385010F
:101F000050938601089581B18F6381B982B1807C3D
:101F10009091EE05892B82B96F9A6E9A3F9AE1E80B
:101F2000F0E080818F7E8083808188608083E0E81C
:101F3000F0E080818D7F808380818E7F80838081AF
:101F40008F73808380818F7C80831092B000109289
:101F5000B100E0E7F0E080818160808360E273E0BF
:101F600080E090E00E94180F109287011092880183
:101F70001092890110928A011092700110926F01E3
:101F8000109282010E94ED0E0895809193018823A2
:101F900079F481E0809393018091EE058093710143
:101FA00077987698479880916F00826080936F0051
:101FB0000895EF92FF920F931F930E94691E60E0B5
:101FC00070E080E090E09B01AC017B018C010E94FD
:101FD00056161F910F91FF90EF90089507C083B799
:101FE000816083BF889583B78E7F83BF0E9443162D
:101FF000892BA9F708951F920F920FB60F920BB677
:102000000F921124EF92FF920F931F932F933F9300
:102010004F935F936F937F938F939F93AF93BF93F0
:10202000CF93DF93EF93FF9380918201882309F090
:1020300075C292B120917101822F8A72957D892B90
:1020400082B982B18A7E822B82B98091E50590E0C7
:10205000A0E0B0E00297A109B109880F991FAA1F5B
:10206000BB1F81958093B20082E08093B10081E034
:1020700080938201789480916F0190917001892BF7
:1020800009F06CC00E944316EC019093700180939C
:102090006F01009709F460C06BA17CA18DA19EA186
:1020A00060938B0170938C0180938D0190938E01CE
:1020B000EBA4FCA40DA51EA5A80197015595479575
:1020C000379527952E0D3F1D401F511F20938F01DF
:1020D00030939001409391015093920120E031E7B9
:1020E00042E050E0209387013093880140938901BA
:1020F00050938A010E94180F8D859E85AF85B889FF
:10210000B595A79597958795B095A095909581954C
:102110009F4FAF4FBF4F8093720190937301A09375
:102120007401B09375018093760190937701A09329
:102130007801B093790180937A0190937B01A09309
:102140007C01B0937D0110927E0110927F0110926C
:1021500080011092810102C00E94ED0EE0916F019A
:10216000F0917001309709F4D0C1608160937101E2
:102170002091720130917301409174015091750169
:1021800081819281A381B481280F391F4A1F5B1F6F
:102190002093720130937301409374015093750141
:1021A00012161306140615069CF461606093710103
:1021B00085859685A785B089281B390B4A0B5B0B53
:1021C0002093720130937301409374015093750111
:1021D00020917601309177014091780150917901F9
:1021E00085819681A781B085280F391F4A1F5B1F03
:1021F00020937601309377014093780150937901D1
:102200001216130614061506ACF480917101846051
:102210008093710185859685A785B089281B390B28
:102220004A0B5B0B20937601309377014093780142
:102230005093790120917A0130917B0140917C018A
:1022400050917D0181859285A385B485280F391F22
:102250004A1F5B1F20937A0130937B0140937C01DE
:1022600050937D011216130614061506ACF48091E6
:10227000710180618093710185859685A785B089FC
:10228000281B390B4A0B5B0B20937A0130937B019F
:1022900040937C0150937D0120917E0130917F011C
:1022A00040918001509181012F5F3F4F4F4F5F4F11
:1022B00020937E0130937F014093800150938101F0
:1022C00085859685A785B089281739074A075B0752
:1022D00008F015C187A590A9A1A9B2A928173907A7
:1022E0004A075B0708F054C02091830130918401B4
:1022F00040918501509186018091870190918801DC
:10230000A0918901B0918A01280F391F4A1F5B1FD4
:1023100020938701309388014093890150938A016B
:10232000213082EE380784E0480780E0580708F43F
:10233000ECC02050324E44405040209387013093EF
:1023400088014093890150938A0183A594A5A5A58E
:10235000B6A520918B0130918C0140918D01509157
:102360008E01820F931FA41FB51F80938B01909342
:102370008C01A0938D01B0938E0127A930AD41ADA2
:1023800052AD82179307A407B50708F491C088C01F
:1023900083A994A9A5A9B6A9281739074A075B07F5
:1023A00008F48FC0281739074A075B0769F480E0F3
:1023B00091E7A2E0B0E08093870190938801A09319
:1023C0008901B0938A01A1C02091830130918401D9
:1023D00040918501509186018091870190918801FB
:1023E000A0918901B0918A01280F391F4A1F5B1FF4
:1023F00020938701309388014093890150938A018B
:10240000213082EE380784E0480780E0580708F45E
:102410007CC02050324E444050402093870130937E
:1024200088014093890150938A0120918B0130915A
:102430008C0140918D0150918E0180918F0190917E
:102440009001A0919101B091920182179307A40786
:10245000B50748F483A594A5A5A5B6A5281B390BF7
:102460004A0B5B0B04C056954795379527952093EB
:102470008B0130938C0140938D0150938E0127A1E5
:1024800030A541A552A580918B0190918C01A0911E
:102490008D01B0918E0182179307A407B50740F410
:1024A00020938B0130938C0140938D0150938E01CA
:1024B00060918B0170918C0180918D0190918E01C2
:1024C0001BC027A930AD41AD52AD80918B019091D9
:1024D0008C01A0918D01B0918E0182179307A40702
:1024E000B50799F020938B0130938C0140938D01B7
:1024F00050938E01CA01B9010E94180F06C01092B4
:10250000700110926F010E943416809171019091B8
:10251000EE0589278093710110928201FF91EF915E
:10252000DF91CF91BF91AF919F918F917F916F91EB
:102530005F914F913F912F911F910F91FF90EF90DD
:102540000F900BBE0F900FBE0F901F901895F9992A
:10255000FECF92BD81BD81E08FBB80B50895F89418
:10256000F999FECF92BD81BD81E08FBB40B5462772
:10257000842F992787FD9095262F30E0822393237F
:10258000892B39F06F3F19F060BD84E006C084E10B
:1025900004C0442321F060BD84E28FBBF99A789493
:1025A00008958F929F92AF92BF92CF92DF92EF9257
:1025B000FF920F93DF93CF9300D0CDB7DEB75C01CE
:1025C0006B017A014A0100E01EC0002319F021E0EE
:1025D00030E008C0202F332727FD30952227330F06
:1025E000221F3327F60161916F01062F020F9C0114
:1025F0002F5F3F4F3A8329830E94AF1208948108CE
:10260000910889819A8181149104F9F6C7018A0D94
:102610009B1D602F0E94AF120F900F90CF91DF9102
:102620000F91FF90EF90DF90CF90BF90AF909F9071
:102630008F900895CF93DF93EC01FB019A0190E016
:10264000B1E019C0F999FECFF2BDE1BDBFBBA0B5A5
:10265000992319F081E090E008C0892F992787FD20
:1026600090958827990F881F992731969A2F980F50
:10267000A993215030402115310521F7460F571FEE
:10268000F999FECF52BD41BD81E08FBB80B520E0FE
:1026900030E0981711F421E030E0C901DF91CF91CB
:1026A000089584EF99EFACE3B4E48093D805909358
:1026B000D905A093DA05B093DB058093DC059093F0
:1026C000DD05A093DE05B093DF058093E0059093D0
:1026D000E105A093E205B093E3058EE18093E50563
:1026E00080E090E0AAEFB3E48093E6059093E705DD
:1026F000A093E805B093E9058093EA059093EB0574
:10270000A093EC05B093ED0580E098ECAFE2B8E45F
:102710008093F3059093F405A093F505B093F60527
:102720008DEC9CECACECBDE38093EF059093F00551
:10273000A093F105B093F20585E18093EE058DEC51
:102740009CECACE4BDE38093F7059093F805A0936F
:10275000F905B093FA05089580E090E064E00E94E6
:10276000AF1281E090E068ED75E043E250E00E9436
:10277000D1120895EF92FF920F931F93CF93DF939F
:10278000EC017A018B018530910509F455C0863042
:10279000910554F48330910581F1843091050CF05A
:1027A00042C097FF12C086C08730910509F456C019
:1027B000873091050CF449C08830910509F457C061
:1027C0008930910509F076C069C0CB01BA0120E0DB
:1027D00030E040E050E00E94AA2018161CF08FE57F
:1027E00093E06FC0CC0FDD1FCC0FDD1FC852DA4F56
:1027F000E882F9820A831B8360C0CB01BA0120E022
:1028000030E040E450E40E94AA2088231CF488E3CE
:1028100093E057C0C801B7010E94E2230E941E2125
:102820006093E5054AC04093E6055093E705609341
:10283000E8057093E90541C04093EA055093EB0524
:102840006093EC057093ED0538C04093EF0550930D
:10285000F0056093F1057093F2052FC0CB01BA012A
:102860000E944D240E941E216093EE0526C0CB01DC
:10287000BA0120E030E040E752E40E947F2320E0EC
:1028800030E040E752E40E947F236093F3057093A9
:10289000F4058093F5059093F6050FC0DB01CA019E
:1028A000BF778093F7059093F805A093F905B0934F
:1028B000FA0503C084E293E004C00E94AC138FE0E9
:1028C00093E00E94C21FDF91CF911F910F91FF9063
:1028D000EF9008951F9380E090E00E94A712182FB8
:1028E000843081F488ED95E061E070E043E250E0EF
:1028F0000E941A1320E0892B09F421E081E02827A7
:1029000030E05EC0813021F588ED95E061E070E057
:102910004BE150E00E941A13892B09F44FC080E06C
:1029200098ECAFE2B8E48093F3059093F405A0939C
:10293000F505B093F6058DEC9CECACE4BDE380931B
:10294000F7059093F805A093F905B093FA0531C007
:102950008250823098F588ED95E061E070E043E2C6
:1029600050E00E941A13892B49F1123061F48DEC6A
:102970009CECACE4BDE38093F7059093F805A0933D
:10298000F905B093FA056091F3057091F405809113
:10299000F5059091F60520E030E041E655E40E940F
:1029A0007F236093F3057093F4058093F50590936E
:1029B000F6050E94AC1321E030E002C020E030E0D8
:1029C000C9011F91089582EF94E00E94C21F609197
:1029D000D8057091D9058091DA059091DB050E94A8
:1029E0002F1F8DED94E00E94C21F6091DC05709155
:1029F000DD058091DE059091DF050E942F1F88EC98
:102A000094E00E94C21F6091E0057091E105809101
:102A1000E2059091E3050E942F1F83EB94E00E9452
:102A2000C21F6091E50570E080E090E00E94A21F67
:102A300081E994E00E94C21F6091E6057091E7056C
:102A40008091E8059091E9050E942F1F8EE694E0A1
:102A50000E94C21F6091EA057091EB058091EC0520
:102A60009091ED050E942F1F8BE494E00E94C21FFD
:102A70006091EF057091F0058091F1059091F2055C
:102A80000E942F1F82E394E00E94C21F6091EE0516
:102A900070E080E090E00E94A21F8FE094E00E942E
:102AA000C21F6091EE0570E080E090E022E030E02F
:102AB00040E050E00E94A81E86E094E00E94C21F01
:102AC0006091F3057091F4058091F5059091F605FC
:102AD00020E030E041E655E40E94B1200E942F1F23
:102AE00083EE93E00E94C21F6091F7057091F80594
:102AF0008091F9059091FA050E942F1F8DEB93E0CC
:102B00000E94C21F88E793E00E94C21F08950E949E
:102B10006A14892B29F080EF92E00E94C21F089569
:102B200085EB92E00E94C21F0E9451130E94AC13D9
:102B30000E94E3140895EF92FF920F931F93DF9387
:102B4000CF93CDB7DEB729970FB6F894DEBF0FBE8F
:102B5000CDBF8C0181E08983F8018081843209F046
:102B600073C081818234A9F582818C34B9F587E004
:102B700091E069E070E00E943B030E94630488E8F2
:102B800093E120E931E0F9013197F1F70197D9F7A5
:102B90008091D8008C7F8093D8001092DA008091C9
:102BA000E00081608093E0008091D8008F7780936F
:102BB000D80019BC8091D7008E7F8093D700809178
:102BC000D8008F7E8093D800E0911101F09112011E
:102BD0000995882319F40E94E31434C0C8017E01CA
:102BE0000894E11CF11CB701AE014E5F5F4F0E94DB
:102BF000C01D892B59F19981F801E90FF11D8081E0
:102C00008D3311F59F5F9983C801B701AE014A5F0B
:102C10005F4F0E94C01D892BC9F08981080F111DCB
:102C2000F8018081882381F46A817B818C819D8178
:102C30000E941921DC01CB014E815F816885798575
:102C40000E94BA1380E003C083E001C081E02996AE
:102C50000FB6F894DEBF0FBECDBFCF91DF911F91AD
:102C60000F91FF90EF9008959091BA058091BB0568
:102C7000981741F08091BB058F5F823109F480E0A5
:102C80008093BB0508959091BA058091BB05981774
:102C900019F420E030E008C09091BB058BE3989FC9
:102CA000900111242C563E4FC90108958F929F9296
:102CB000AF92BF92CF92DF92EF92FF920F931F934A
:102CC00049015A012091D8053091D9054091DA0582
:102CD0005091DB050E947F230E944F232CEBC22ED4
:102CE00025E0D22E6093BC057093BD058093BE0590
:102CF0009093BF05C501B4012091DC053091DD053D
:102D00004091DE055091DF050E947F230E944F23F2
:102D1000F60134966093C005718382839383C80162
:102D2000B7012091E0053091E1054091E205509115
:102D3000E3050E947F230E944F2328E030E0C20E6B
:102D4000D31E6093C405D60111967C9311971296F9
:102D50008C93129713969C9380E090E0A0E0B0E0F3
:102D60008093D4059093D505A093D605B093D7054D
:102D70008CE0E8ECF5E0DF011D928A95E9F71F9100
:102D80000F91FF90EF90DF90CF90BF90AF909F900A
:102D90008F9008951092BA051092BB058CE0ECEB71
:102DA000F5E0DF01982F1D929A95E9F7E8ECF5E040
:102DB000DF011D928A95E9F780E090E0A0E0B0E0A5
:102DC0008093D4059093D505A093D605B093D705ED
:102DD00008958F929F92AF92BF92CF92DF92EF921F
:102DE000FF920F931F93CF93DF93EC016B0100973A
:102DF00009F460C08AA1882309F05CC0ED88FE88D0
:102E00000F89188DFB01B588A6889788808CC8012A
:102E1000B7012B2D3A2D492D582D0E94AA20882329
:102E20000CF048C0C801B701A80197010E947F2398
:102E30007B018C016091F3057091F4058091F5059B
:102E40009091F605905820E030E040E050EC0E9470
:102E50007F232D8D3E8D4F8D58A10E947F239B0196
:102E6000AC01C801B7010E94D11F0E940C247B0154
:102E70008C016B2D7A2D892D982D9701A8010E9428
:102E8000AA20882324F4EB2CFA2C092D182D6B2D65
:102E90007A2D892D982D9701A8010E94AA208823B8
:102EA00049F0C701D801F601858B968BA78BB08FAF
:102EB00081E081A3DF91CF911F910F91FF90EF905F
:102EC000DF90CF90BF90AF909F908F9008952F92FA
:102ED0003F924F925F926F927F928F929F92AF92AA
:102EE000BF92CF92DF92EF92FF920F931F93DF93E7
:102EF000CF93CDB7DEB768970FB6F894DEBF0FBE9D
:102F0000CDBF1C016A017B0128013901DC01D79684
:102F10006D917D918D919C91DA970E944A214B0190
:102F20005C01A70196010E947F230E9497200E94C6
:102F30001E217B018C01F10163A374A385A396A3D9
:102F4000C501B401A30192010E947F230E94972032
:102F50000E941E2169877A878B879C87D10197966B
:102F60006D937D938D939C939A979B966D917D9194
:102F70008D919C919E9722E330E040E050E00E94CA
:102F800070240E944C2120E030E040E752E40E948F
:102F90007F230E9419212B013C01C801B7010E9427
:102FA0004A217B018C01C301B2010E944C216D8337
:102FB0007E838F839887C501B401A50194010E9487
:102FC0007F235B016C01C801B701A80197010E9432
:102FD0007F236D877E878F87988B6D817E818F8120
:102FE00098859B01AC010E94D11F698B7A8B8B8BDA
:102FF0009C8BC601B5012D853E854F8558890E9461
:10300000D01F29893A894B895C890E94B1200E948E
:1030100097200E94192169837A838B839C83698519
:103020007A858B859C850E944A219B01AC010E9478
:103030007F236D8B7E8B8F8B988FA60195010E94CD
:10304000D01F7B018C017094609450944094411C7B
:10305000511C611C711CC301B2010E944C219B01D7
:10306000AC010E94D11F9B01AC01C801B7010E94B5
:10307000B1200E948721F101A584B684C784D0883D
:103080008601750129813A814B815C81E21AF30A3C
:10309000040B150B0E941921A8019701261B370B61
:1030A000480B590BDA01C90157FF4AC0C601B501E7
:1030B0000E944C219B01AC0169897A898B899C898A
:1030C0000E947F232D853E854F8558890E94D01F01
:1030D0002D893E894F89588D0E94D11F7B018C011B
:1030E0006D817E818F81988520E030E040E850E45A
:1030F0000E947F239B01AC01C801B7010E94B1204F
:103100000E9497200E941921AC01CB01DA01BC0179
:10311000CD0197FF04C060E070E080E090E069833B
:103120007A838B839C83A616B706C806D90624F437
:10313000A982BA82CB82DC8280E090E0A0E0B0E09D
:1031400029813A814B815C81F10127A730AB41ABEA
:1031500052AB820F931FA41FB51F83AB94ABA5ABDB
:10316000B6AB68960FB6F894DEBF0FBECDBFCF9159
:10317000DF911F910F91FF90EF90DF90CF90BF9064
:10318000AF909F908F907F906F905F904F903F9007
:103190002F9008952F923F924F925F926F927F925D
:1031A0008F929F92AF92BF92CF92DF92EF92FF9257
:1031B0000F931F93DF93CF93CDB7DEB7E7970FB68B
:1031C000F894DEBF0FBECDBF6EA37FA388A799A7DB
:1031D0002AA73BA74CA75DA7AEA6BFA6C8AAD9AA97
:1031E000382C6090D8057090D9058090DA059090C1
:1031F000DB05A090DC05B090DD05C090DE05D09029
:10320000DF052091E0053091E1054091E205509104
:10321000E3058091BA058F5F898F823149F4198E59
:1032200007C083B7816083BF889583B78E7F83BFD4
:103230008091BB05998D8917A1F39091BA058BE315
:10324000989F20011124A4E9B1E04A0E5B1EC80139
:10325000B7010E947F230E944F2369877A878B875B
:103260009C876AA57BA58CA59DA5A60195010E94BA
:103270007F230E944F236D837E838F8398876EA167
:103280007FA188A599A5A40193010E947F230E9494
:103290004F2369837A838B839C83F2011082298177
:1032A0003A814B815C818091BC059091BD05A091D4
:1032B000BE05B091BF05281739074A075B0714F40C
:1032C00082E080832D813E814F8158858091C005A9
:1032D0009091C105A091C205B091C3052817390787
:1032E0004A075B0724F4D2018C9188608C9329856E
:1032F0003A854B855C858091C4059091C505A09168
:10330000C605B091C705281739074A075B0724F49B
:10331000F20180818062808329813A814B815C81C6
:103320008091BC059091BD05A091BE05B091BF05EF
:10333000281B390B4A0B5B0B57FF07C05095409574
:10334000309521953F4F4F4F5F4FD20111962D93EE
:103350003D934D935C931497AD80BE80CF80D8840D
:103360008091C0059091C105A091C205B091C3059F
:10337000A6019501281B390B4A0B5B0BDA01C90129
:1033800057FF07C0B095A095909581959F4FAF4F7F
:10339000BF4FF20185839683A783B0876090C405F1
:1033A0007090C5058090C6059090C70589859A855F
:1033B000AB85BC8586199709A809B909B7FF07C06D
:1033C000B095A095909581959F4FAF4FBF4FF2015B
:1033D00081879287A387B487E580F680078110856F
:1033E00021813281438154812E153F0540075107C9
:1033F00010F4A8019701281739074A075B0710F452
:103400009C01AD01D2011D962D933D934D935C938C
:103410005097211531054105510509F485C369818E
:103420007A818B819C812091BC053091BD054091B2
:10343000BE055091BF05621B730B840B950B0E9458
:103440004C212091D8053091D9054091DA05509151
:10345000DB050E94B1206AA37BA38CA39DA380916E
:10346000C0059091C105A091C205B091C305A81AED
:10347000B90ACA0ADB0AC601B5010E944C21209193
:10348000DC053091DD054091DE055091DF050E949D
:10349000B1206E8F7F8F88A399A369857A858B85EC
:1034A0009C8566197709880999090E944C21209109
:1034B000E0053091E1054091E2055091E3050E945D
:1034C000B1206A8F7B8F8C8F9D8F6AA17BA18CA18D
:1034D0009DA10E944A243B014C016E8D7F8D88A1E5
:1034E00099A10E944A247B018C016A8D7B8D8C8D71
:1034F0009D8D0E944A245B016C01C401B301A801A7
:1035000097010E94D11FA60195010E94D11F0E9420
:103510000C247B018C01F201658F768F878F90A33D
:1035200060E070E080E89FE3A80197010E94B1206D
:103530003B014C01332049F46EA57FA588A999A9C8
:10354000A40193010E947F230AC060E070E080E83C
:103550009FE32EA53FA548A959A90E94B1205B0170
:103560006C01C801B701A60195010E947F236AABD7
:103570007BAB8CAB9DABD20151966D937D938D93BC
:103580009C9354971D966D917D918D919C91509730
:103590000E944C217B018C01A60195010E947F2392
:1035A0000E9497200E941E21F20167AB70AF81AF8D
:1035B00092AFC801B701A40193010E947F2320911B
:1035C000F3053091F4054091F5055091F6050E9400
:1035D0007F2320E030E84BE355E40E94B1200E94B5
:1035E00097200E941921D2019B966D937D938D9314
:1035F0009C939E976AA17BA18CA19DA1A40193019C
:103600000E947F237B018C016D877E878F87988B3B
:103610006E8D7F8D88A199A1A40193010E947F23C3
:103620005B016C01698B7A8B8B8B9C8B6A8D7B8D9C
:103630008C8D9D8DA40193010E947F233B014C0141
:103640006D8B7E8B8F8B988F9091BA058091BB0587
:10365000981709F4B9C0B091D405BEABE091D50577
:10366000EFAB2090D6053090D7056B2F7E2FC10190
:1036700020E030E040E050E00E94AD2218160CF04F
:10368000A3C06091C8057091C9058091CA05909149
:10369000CB059058A80197010E947F237B018C01E4
:1036A0006091CC057091CD058091CE059091CF05AC
:1036B000A60195010E947F239B01AC01C801B701BF
:1036C0000E94D01F7B018C01C401B3012091D00561
:1036D0003091D1054091D2055091D3050E947F23AE
:1036E0009B01AC01C801B7010E94D01F7B018C0176
:1036F00023E333E343E75FE30E94AA2088230CF02F
:1037000063C06EA97FA9C1012AA93BA94CA95DA9E3
:103710000E94AA2087FD07C08AA99BA9ACA9BDA9C0
:103720008EAB9FAB1D01C801B70123E333E343E731
:103730005FEB0E94AD2218160CF04BC060E070E009
:1037400080E89FE3A80197010E94D01F20E030E0AD
:1037500040E05FE30E947F230E940C245B016C0128
:103760006091F3057091F4058091F5059091F6054F
:103770002091F7053091F8054091F9055091FA052F
:103780000E947F23A60195010E947F237B018C016B
:1037900060E070E080E89FE3A60195010E94D01FE1
:1037A0009B01AC01C801B7010E94B1200E940C240A
:1037B0007B018C016EA97FA9C1019701A8010E941C
:1037C000AA2087FD06C008C0EE24FF2400E010E018
:1037D00003C0EEA8FFA88101C701D801F201818FC3
:1037E000928FA38FB48F6091F3057091F40580914F
:1037F000F5059091F605905820E030E040E050EC5F
:103800000E947F23D2015D962D913D914D915C9157
:1038100090970E947F2320E030E040E050E00E943B
:10382000D11F0E940C24D62EC72EB82EA92EB70168
:10383000C8012D2D3C2D4B2D5A2D0E94AA2087FD0D
:1038400004C0ED2CFC2C0B2D1A2DC701D801F20160
:10385000858B968BA78BB08F6189728983899489B8
:103860002D2D3C2D4B2D5A2D0E94AA2018162CF0E0
:1038700081E0D20192968C9302C0F20112A281E003
:10388000D20191968C93A8ECB5E0FE013D968CE0B8
:1038900001900D928150E1F7F20181899289A3890B
:1038A000B4898093D4059093D505A093D605B093A1
:1038B000D705F98DF093BA05ACEBB5E0FE01319672
:1038C0008CE001900D928150E1F77090BA05CC2404
:1038D000DD2400E010E0552453947BE3672E8DC077
:1038E000772011F462E1762E7A94C114D10409F4A0
:1038F0007AC00115110509F476C0D6015996BC901D
:1039000059975A96AC905A975B969C905B975C96A9
:103910008C905C9755966D917D918D919C91589767
:103920002B2D3A2D492D582D0E94AA20882309F4C9
:103930005AC0F60182A1882309F049C0D8015596E2
:10394000ED90FD900D911C9158976B2D7A2D892D3E
:10395000982DA80197010E94AD221816C4F5C80140
:10396000B701A80197010E947F237B018C01609120
:10397000F3057091F4058091F5059091F605905846
:1039800020E030E040E050EC0E947F23F601258DDE
:10399000368D478D50A10E947F239B01AC01C80149
:1039A000B7010E94D11F0E940C24162F072FF82E5A
:1039B000E92E6B2D7A2D892D982D212F302F4F2D0B
:1039C0005E2D0E94AA2087FD02C0580147018B2D61
:1039D0009A2DA92DB82DF601858B968BA78BB08FCC
:1039E000D60191965C92769CC0011124860154E91F
:1039F000C52E51E0D52EC80ED91E8091BB05781674
:103A000009F06ECFD090BB05EE24FF2420E030E01B
:103A10004BE3C42E11C0DC9C800111240C561E4FB8
:103A2000C901B701A8010E94E916D394B2E1DB16DF
:103A300009F4DD24970178018091BA05D81659F769
:103A4000C901B70140E050E00E94E9165090BB0563
:103A5000882499243BE3432E3FC0549C3001112419
:103A6000E4E9F1E06E0E7F1E8114910479F1D40136
:103A700091968C91882321F4F30181A1882331F15F
:103A8000D4015196ED90FD900D911C91549755964F
:103A90006D917D918D919C915897A80197010E94FD
:103AA000B1205B016C01F301658976898789908D6E
:103AB000A80197010E94B1208B019C01C401B601AD
:103AC000A5010E946717D40191961C925394B2E10C
:103AD0005B1609F4552443018091BA05581609F084
:103AE000BCCFF401E188F28803891489658976895D
:103AF0008789908DA80197010E94B1205B016C011C
:103B000060E070E080E090E0A80197010E94B120A1
:103B10008B019C01C401B601A5010E946717D40165
:103B200091961C920E94C50FE7960FB6F894DEBFDF
:103B30000FBECDBFCF91DF911F910F91FF90EF90FE
:103B4000DF90CF90BF90AF909F908F907F906F90BD
:103B50005F904F903F902F90089520EA3FE004C07F
:103B6000F9013197F1F701970097D1F7089535E002
:103B700004C0232F2A95F1F701970097D1F70895F4
:103B8000AF92BF92CF92DF92EF92FF920F931F936B
:103B9000DF93CF9300D0CDB7DEB76C015B017A0124
:103BA000FB0180818601080F111DC801BE016F5FF6
:103BB0007F4F0E94B124F7016083718382839383D6
:103BC00089819A818017910719F420E030E005C0BF
:103BD0008C19F501808321E030E0C9010F900F902E
:103BE000CF91DF911F910F91FF90EF90DF90CF90D9
:103BF000BF90AF90089584B1867E84B908956F9286
:103C00007F928F929F92AF92BF92CF92DF92EF926C
:103C1000FF920F931F93982EA62EB42E6701780162
:103C20008091E505C81AD108E108F108992011F042
:103C30009BE201C09AE2A1109460B110906122232E
:103C400011F08AE298270091EE05092782B1902FA2
:103C50009A72857D982B92B96624639494E0792EAC
:103C600080E1882E83B1992021F01B9902C006259E
:103C70009924AA2021F0189902C00725AA24BB2064
:103C800021F01C9902C00825BB24992021F4AA2008
:103C900011F4BB2089F082B1102F1571812B82B9EC
:103CA0008091E50590E00E94B71D82B1182712B9F6
:103CB000C6010E94B71DD6CF1F910F91FF90EF90C4
:103CC000DF90CF90BF90AF909F908F907F906F903C
:103CD0000895DF92EF92FF920F931F930E94EE0FD1
:103CE000D3B080E060E041E020E0E0EAEE2EE6E8DC
:103CF000FE2EE1E00E2F112D0E94FF1D81E061E0FC
:103D000040E020E00E94FF1D83B18D25897190E085
:103D1000BC0161707070AC0174E0569547957A955E
:103D2000E1F7417053E0969587955A95E1F78170D8
:103D300021E030E2E32E31EAF32E37E0032F112D9C
:103D40000E94FF1D1F910F91FF90EF90DF9008954B
:103D50002F923F924F925F926F927F928F929F929B
:103D6000AF92BF92CF92DF92EF92FF920F931F9389
:103D7000DF93CF93CDB7DEB7A0970FB6F894DEBF31
:103D80000FBECDBF6B017C0129013A0161157105A0
:103D90008105910521F480E30E94500E47C08824DC
:103DA000992454011E010894211C311C8101080D25
:103DB000191DC701B601A30192010E948F24F801C9
:103DC00060830894811C911CA11CB11CC701B60121
:103DD000A30192010E948F24C901DA016C017D01C7
:103DE000C114D104E104F10409F77101E80CF91CD4
:103DF0003E010894611C711CD501C4010197A10901
:103E0000B1096C01C818D9080EC0F601EE0DFF1DEE
:103E100080818A3010F4805D01C0895C0E94500E60
:103E20000894E108F1086E147F0479F7A0960FB6A4
:103E3000F894DEBF0FBECDBFCF91DF911F910F91E0
:103E4000FF90EF90DF90CF90BF90AF909F908F90BA
:103E50007F906F905F904F903F902F900895AF921A
:103E6000BF92CF92DF92EF92FF920F931F93CF9367
:103E7000DF937B018C0120E030E040E050E00E94C5
:103E8000AA2088233CF48DE20E94500E17FB109567
:103E900017F91095C801B7012FE632E143E05AE364
:103EA0000E94D11F7B018C010E9419215B016C01D2
:103EB000CC24B7FCC094DC2CC601B5012AE030E06C
:103EC00040E050E00E94A81E8EE20E94500EC60103
:103ED000B5010E944C219B01AC01C801B7010E94B1
:103EE000D01FC3E0D0E01EC020E030E040E251E44B
:103EF0000E947F235B016C010E9419217B018C01D0
:103F0000862F805D0E94500E6E2D70E0882777FD11
:103F10008095982F0E944C219B01AC01C601B501F0
:103F20000E94D01F21972FEFCF3FD207E9F6DF91F4
:103F3000CF911F910F91FF90EF90DF90CF90BF90A6
:103F4000AF900895EF92FF920F931F937B018C0126
:103F500097FF0BC08DE20E94500E10950095F094D3
:103F6000E094E11CF11C011D111DC801B7012AE0FC
:103F700030E040E050E00E94A81E1F910F91FF909A
:103F8000EF900895CF93DF93EC0102C00E94500E92
:103F9000FE01219684918823C9F7DF91CF9108957E
:103FA0005058BB27AA270ED076C23FD230F044D259
:103FB00020F031F49F3F11F41EF40FC20EF4E0958F
:103FC000E7FBDCC1E92F89D280F3BA1762077307D8
:103FD0008407950718F071F49EF5B8C20EF4E095C9
:103FE0000B2EBA2FA02D0B01B90190010C01CA01B3
:103FF000A0011124FF27591B99F0593F50F4503E5E
:1040000068F11A16F040A22F232F342F4427585F4F
:10401000F3CF469537952795A795F0405395C9F767
:104020007EF41F16BA0B620B730B840BBAF091501F
:10403000A1F0FF0FBB1F661F771F881FC2F70EC0BE
:10404000BA0F621F731F841F48F487957795679591
:10405000B795F7959E3F08F0B3CF9395880F08F07A
:104060009927EE0F979587950895DFD158F080E84E
:1040700091E009F49EEFE0D128F040E851E059F4D6
:104080005EEF09C0AAC162C2E92FE07826D268F3C8
:10409000092E052AC1F3261737074807590738F0B4
:1040A0000E2E07F8E02569F0E025E0640AC0EF6312
:1040B00007F8009407FADB01B9019D01DC01CA0190
:1040C000AD01EF935DD0E7D10AD05F91552331F078
:1040D0002BED3FE049E450FD49EC63CF0895DF93B9
:1040E000DD27B92FBF7740E85FE3161617064807AC
:1040F0005B0710F4D92F96D29F938F937F936F9382
:10410000C9D3EAE1F1E06CD1C6D12F913F914F9133
:104110005F9101D3DD2349F09058A2EA2AED3FE0F8
:1041200049EC5FE3D0785D274DDFDF91B4C1F7D173
:1041300080F09F3740F491110EF409C260E070E006
:1041400080E89FE3089526F01B16611D711D811DF7
:104150001BC135C1EFD008F481E0089575D1E39516
:10416000ABC10CD098C168D140F05FD130F021F4E0
:104170005F3F19F003C15111EAC12FC1AED198F3CD
:104180009923C9F35523B1F3951B550BBB27AA27D8
:1041900062177307840738F09F5F5F4F220F331F4A
:1041A000441FAA1FA9F333D00E2E3AF0E0E830D016
:1041B00091505040E695001CCAF729D0FE2F27D019
:1041C000660F771F881FBB1F261737074807AB07E7
:1041D000B0E809F0BB0B802DBF01FF2793585F4F5C
:1041E0002AF09E3F510568F0C9C0B1C15F3FECF3B2
:1041F000983EDCF3869577956795B795F7959F5F21
:10420000C9F7880F911D9695879597F90895E1E074
:10421000660F771F881FBB1F621773078407BA07D3
:1042200020F0621B730B840BBA0BEE1F88F7E0952E
:10423000089504D06894B1118AC1089556D188F0C8
:104240009F5790F0B92F9927B751A0F0D1F0660F82
:10425000771F881F991F1AF0BA95C9F712C0B1309D
:1042600081F074D1B1E0089571C1672F782F88274C
:10427000B85F39F0B93FCCF3869577956795B395DC
:10428000D9F73EF490958095709561957F4F8F4F4B
:104290009F4F0895E89409C097FB3EF49095809550
:1042A000709561957F4F8F4F9F4F9923A9F0F92FFC
:1042B00096E9BB279395F695879577956795B7957A
:1042C000F111F8CFFAF4BB0F11F460FF1BC06F5F60
:1042D0007F4F8F4F9F4F16C0882311F096E911C072
:1042E000772321F09EE8872F762F05C0662371F093
:1042F00096E8862F70E060E02AF09A95660F771FA7
:10430000881FDAF7880F9695879597F9089507D152
:1043100080F09F3740F491110EF019C160E070E019
:1043200080E89FEB089526F41B16611D711D811D09
:104330002BC045C0990F0008550FAA0BE0E8FEEF0F
:1043400016161706E807F907C0F012161306E40759
:10435000F50798F0621B730B840B950B39F40A2652
:1043600061F0232B242B252B21F408950A2609F430
:10437000A140A6958FEF811D811D089597F99F6734
:1043800080E870E060E00895882371F4772321F0DD
:104390009850872B762F07C0662311F499270DC0FC
:1043A0009051862B70E060E02AF09A95660F771F97
:1043B000881FDAF7880F9695879597F908959F3F9C
:1043C00031F0915020F4879577956795B795880FD0
:1043D000911D9695879597F908959FEF80EC089524
:1043E000DF93CF931F930F93FF92EF92DF927B01A6
:1043F0008C01689405C0DA2EEF018DD1FE01E8949E
:10440000A5912591359145915591AEF3EF01DADDF6
:10441000FE019701A801DA9479F7DF90EF90FF9001
:104420000F911F91CF91DF91089500240A941616E1
:10443000170618060906089500240A941216130692
:10444000140605060895C9CF50D0E8F3E894E0E0DB
:10445000BB279F57F0F02AED3FE049EC06C0EE0F76
:10446000BB0F661F771F881F28F0B23A62077307D9
:10447000840728F0B25A620B730B840BE3959A956C
:1044800072F7803830F49A95BB0F661F771F881F2C
:10449000D2F7904896CF092E0394000C11F488238C
:1044A00052F0BB0F40F4BF2B11F460FF04C06F5FEC
:1044B0007F4F8F4F9F4F0895EF93E0FF06C0A2EA12
:1044C0002AED3FE049EC5FEB7DDDE5DF0F900394E3
:1044D00001FC9058E7E4F1E0F2C157FD9058440F19
:1044E000551F59F05F3F71F04795880F97FB991F53
:1044F00061F09F3F79F08795089512161306140610
:10450000551FF2CF4695F1DF08C01616170618069C
:10451000991FF1CF86957105610508940895E5DF2F
:10452000A0F0BEE7B91788F4BB279F3860F41616D1
:10453000B11D672F782F8827985FF7CF86957795DD
:104540006795B11D93959639C8F30895E894BB27F4
:1045500066277727CB0197F90895ECDE08F48FEFF3
:10456000089563DF19F068DF09F037CF07CFB9018D
:10457000CA0125CF9F775F77B0DF98F39923B9F30E
:104580005523B9F3FF27951758F4E52FE91BED30B4
:1045900070F75E3B10F0F1E41CC09034E0F40AC008
:1045A000E92FE51BED3028F79E3B10F0F1E411C038
:1045B000503488F4F9EA88232AF09A95660F771F19
:1045C000881FDAF744232AF05A95220F331F441F1D
:1045D000DAF79F1B5F1BFF931F930F93FF92EF92DE
:1045E00079018A01BB27AB2F9B01AC0196D09701C3
:1045F000A801BF937B018C01AA27BA2FB901CA0178
:104600008CD0AF919701A801EF90FF900F911F916F
:10461000D9DC41DF01D14F9140FF0895552747FD77
:10462000509509C09B01AC0160E070E080E89FE319
:1046300098CDA4CEC4CE59DFE8F39923D9F3940FD3
:10464000511DBBF39150504094F059F0882332F043
:10465000660F771F881F91505040C1F79E3F51054C
:1046600044F7880F911D9695879597F908955F3FB8
:10467000ACF0983E9CF0BB27869577956795B795EB
:1046800008F4B1609395C1F7BB0F58F711F460FFC0
:10469000E8CF6F5F7F4F8F4F9F4FE3CF58CF25DF1E
:1046A00058F19E5758F19851A0F0E9F0983020F554
:1046B000092E9927660F771F881F991F0A94D1F733
:1046C00012C0062E672F782F8827985F11F4000CF0
:1046D00007C0993FB4F38695779567959395D9F779
:1046E000611D711D811D3EF49095809570956195B9
:1046F0007F4F8F4F9F4F0895689429CF27CF0BD0BE
:10470000CACE93DE28F098DE18F0952309F036CE55
:1047100064CE11241CCFE1DEA0F3959FD1F3950F59
:1047200050E0551F629FF001729FBB27F00DB11D35
:10473000639FAA27F00DB11DAA1F649F6627B00DC5
:10474000A11D661F829F2227B00DA11D621F739FAE
:10475000B00DA11D621F839FA00D611D221F749FBC
:104760003327A00D611D231F849F600D211D822F03
:10477000762F6A2F11249F5750408AF0E1F088234A
:104780004AF0EE0FFF1FBB1F661F771F881F915057
:104790005040A9F79E3F510570F0F0CDD8CE5F3F55
:1047A000ECF3983EDCF3869577956795B795F7958A
:1047B000E7959F5FC1F7FE2B880F911D9695879512
:1047C00097F9089592DEE0F09E37D8F09639B8F464
:1047D0009E3848F4672F782F8827985FF9CF869501
:1047E0007795679593959539D0F3B62FB1706B0F88
:1047F000711D811D20F48795779567959395C4CD9C
:10480000DECDA5CE9F9320DE0F9007FCEE5F54CE49
:1048100011F40EF4E2CDD3CD68DED0F39923D9F3B1
:10482000CEF39F57550B87FF43D00024A0E640EA04
:10483000900180585695979528F4805C660F771FF5
:10484000881F20F026173707480730F4621B730BC8
:10485000840B202931294A2BA695179407942025EB
:1048600031254A2758F7660F771F881F20F0261733
:104870003707480730F4620B730B840B200D311D92
:10488000411DA09581F7B901842F9158880F969505
:10489000879508959B01AC0132CF41DE20F09F3710
:1048A00008F455CE71CD8BCD45DD880B990B08955D
:1048B00091505040660F771F881FD2F708959F933D
:1048C0008F937F936F93FF93EF939B01AC0117DF5F
:1048D000EF91FF9185DD2F913F914F915F910FCF28
:1048E000629FD001739FF001829FE00DF11D649FD4
:1048F000E00DF11D929FF00D839FF00D749FF00D60
:10490000659FF00D9927729FB00DE11DF91F639F00
:10491000B00DE11DF91FBD01CF0111240895A1E2E1
:104920001A2EAA1BBB1BFD010DC0AA1FBB1FEE1F29
:10493000FF1FA217B307E407F50720F0A21BB30B74
:10494000E40BF50B661F771F881F991F1A9469F7F0
:1049500060957095809590959B01AC01BD01CF014C
:1049600008958F929F92AF92BF92CF92DF92EF9273
:10497000FF920F931F93CF93DF93EC015B016115BF
:10498000710519F0FB0191838083F9908F2D90E0E0
:104990000E941F26892BC9F7FDE2FF1621F4F9902A
:1049A000EE24E39405C02BE2F21609F4F990EE240C
:1049B0008E0101501040C80168EF74E043E050E000
:1049C0000E942726892B01F58E010E5F1F4FC8011B
:1049D0006BEF74E045E050E00E942726892B19F424
:1049E0008E01095F1F4FA114B10419F0F501118365
:1049F0000083E0FC04C070E090E080E814C070E048
:104A000090E080E86FEF08C1C80160E075E043E026
:104A100050E00E942726892B69F4A114B10429F4DF
:104A200070E090E080EC6FE7F7C02296F501D1834B
:104A3000C083F6CF8824992440E050E060E070E025
:104A4000EF2DE053EA30A0F5F2E0EF2A8E2D90E052
:104A50009C0128703070E2FE06C0232B79F5089483
:104A6000811C911C2BC0232B19F0089481089108FC
:104A7000DB01CA0112E0880F991FAA1FBB1F1A95FC
:104A8000D1F7480F591F6A1F7B1F440F551F661F20
:104A9000771F4E0F511D611D711D483929E95207BD
:104AA00029E9620729E1720748F084E0E82A06C094
:104AB000EE3F31F4E3FC39C098E0E92AF990C0CF29
:104AC000E53311F0E53189F529912D3219F4E0E152
:104AD000EE2A05C02B3219F081E090E003C0299145
:104AE00082E090E0E22FE053EA3018F0C81BD90BC7
:104AF0001CC020E030E0FCE020383F075CF4C90136
:104B0000880F991F880F991F280F391F220F331FF5
:104B10002E0F311DE991E053EA3068F3E4FE03C043
:104B2000309521953F4F820E931ECE2CDD24E1FE61
:104B300007C0A114B10421F02197F501D183C083EE
:104B4000CB01BA010E944A217B018C01F3E0CF2204
:104B5000DD2423E0C216D10421F417FB109517F9C8
:104B6000109557016801C801B70120E030E040E02E
:104B700050E00E94AA20882309F44AC097FE0DC085
:104B800027E1E22E25E0F22E9094819491089394EF
:104B9000C0E2D0E000E010E012C09FE2E92E95E014
:104BA000F92EF6CFF7012591359145915491C60123
:104BB000B5010E947F235B016C018C1A9D0A8C1643
:104BC0009D0684F7D595C7950F5F1F4F06301105D9
:104BD00029F08CEF9FEFE80EF91EF1CFC501D60149
:104BE0007C018D018C2D880F8D2D881F8F3F51F0FA
:104BF000C601B50120E030E040E050E00E94AA206C
:104C0000882331F482E290E09093FC058093FB05C9
:104C10007E2D9F2D802F612F272F392F482F562F24
:104C2000B901CA01DF91CF911F910F91FF90EF90D1
:104C3000DF90CF90BF90AF909F908F90089591118B
:104C40001EC0803219F089508550D0F70895FB01BD
:104C5000DC014150504088F08D9181341CF08B353F
:104C60000CF4805E659161341CF06B350CF4605E71
:104C7000861B611171F3990B0895881BFCCF99274E
:084C800088270895F894FFCF86
:104C880000E10000000008626F6F746C6F61640AD5
:044C98000000F00028
:00000001FF
